:100000001AC034C033C032C031C05BC02FC02EC054
:100010002DC02CC02BC02AC029C028C027C0003743
:10002000003800360101010101010102040810201D
:1000300001030000000011241FBECFE5D2E0DEBFA7
:10004000CDBF10E0A0E6B0E0ECEBF2E002C005901E
:100050000D92A036B107D9F710E0A0E6B0E001C0DC
:100060001D92A936B107E1F723D126C1C9CF1F934D
:1000700010E0812F61E0DED064E670E080E090E087
:1000800074D0812F60E0D6D01F5F153091F714E057
:10009000812F61E0CFD064E670E080E090E065D031
:1000A000812F60E0C7D0115098F71F9108951F93DA
:1000B00010E0812F61E0A0D01F5F1530D1F71F91B4
:1000C00008951F920F920FB60F9211242F933F9312
:1000D0004F935F936F937F938F939F93AF93BF9350
:1000E0002091640030916500409166005091670056
:1000F00070916800DA01C9014096A11DB11D672FFA
:10010000605D6D3730F06D57DA01C9014196A11D70
:10011000B11D609368008093640090936500A09384
:100120006600B09367008091600090916100A0919B
:100130006200B09163000196A11DB11D8093600023
:1001400090936100A0936200B0936300BF91AF9160
:100150009F918F917F916F915F914F913F912F91DF
:100160000F900FBE0F901F901895EF92FF920F9374
:100170001F937B018C018FB7F894409164005091DC
:10018000650060916600709167008FBF2FB7F8948B
:100190008091640090916500A0916600B091670025
:1001A0002FBF841B950BA60BB70BE816F9060A07A1
:1001B0001B0760F71F910F91FF90EF9008957894BF
:1001C0008AB582608ABD8AB581608ABD83B7826044
:1001D00083BF83B7816083BF89B7826089BF80B7DF
:1001E000826080BF80B7816080BF80B7806480BF3D
:1001F000319A309A379A0895282F30E0C901865DE8
:100200009F4FFC0194912C5D3F4FF901849188230D
:1002100081F0E82FF0E0E25EFF4FE491F0E066232A
:1002200029F4808190958923808308958081892B8A
:1002300080830895482F50E0CA01805D9F4FFC01E4
:100240002491CA01865D9F4FFC0194914C5D5F4FE4
:10025000FA013491332359F12223C9F0233039F4C0
:1002600080B78F7D80BF80B78F7D80BF10C0213069
:1002700031F48AB58F778ABD8AB58F7B07C022306B
:1002800031F48AB58F7D8ABD8AB58F7E8ABDE32F12
:10029000F0E0E05EFF4FE491F0E0662329F4808116
:1002A00090958923808308958081892B8083089588
:0C02B00086DFFDDEDCDEFECFF894FFCF21
:00000001FF
