:100000001AC034C033C032C031C0E0C02FC02EC0CF
:100010002DC02CC02BC02AC029C028C027C0003743
:10002000003800360101010101010102040810201D
:1000300001030000000011241FBECFE5D2E0DEBFA7
:10004000CDBF10E0A0E6B0E0E0E3F4E002C0059030
:100050000D92A036B107D9F710E0A0E6B0E001C0DC
:100060001D92AD36B107E1F7B6D1E0C1C9CF21E0AD
:1000700030E002C0220F331F8A95E2F787B3422F88
:100080004095842387BB88B3822B88BB30E0622FE6
:1000900070E086B390E086239723892B19F43F5FA5
:1000A0003031B9F788B3482348BB87B3282B27BB27
:1000B000832F08950F931F93CF93DF9384E0D7DFAF
:1000C000082F10E020916000309161002017310767
:1000D000A4F58091620090916300281739076CF1B4
:1000E000C0E0D0E080E061E038D181E061E035D16E
:1000F00082E061E032D183E061E02FD16EE170E017
:1001000080E090E0B7D080E060E027D181E060E05F
:1001100024D182E060E021D183E060E01ED162E37F
:1001200070E080E090E0A6D02196C330D105D1F6F2
:1001300068E572E080E090E09DD01093630000934A
:10014000620084EF91E0C0D0DF91CF911F910F91B9
:1001500008950F931F93CF93DF9380E061E0DFD08A
:1001600081E061E0DCD082E061E0D9D083E061E051
:10017000D6D064E670E080E090E07CD0C0E0D0E0D3
:10018000009160001091610084E071DF080F111D83
:10019000109361000093600064E170E080E090E003
:1001A00069D02196C830D10559F7809160009091AF
:1001B0006100049668E070E012D170936100609372
:1001C0006000DF91CF911F910F9108951F920F92C0
:1001D0000FB60F9211242F933F934F935F936F931A
:1001E0007F938F939F93AF93BF932091680030913B
:1001F000690040916A0050916B0070916C00DA01C7
:10020000C9014096A11DB11D672F605D6D3730F0AB
:100210006D57DA01C9014196A11DB11D60936C00B3
:100220008093680090936900A0936A00B0936B007C
:100230008091640090916500A0916600B091670084
:100240000196A11DB11D8093640090936500A09359
:100250006600B0936700BF91AF919F918F917F919E
:100260006F915F914F913F912F910F900FBE0F9023
:100270001F901895EF92FF920F931F937B018C01B3
:100280008FB7F894409168005091690060916A00BE
:1002900070916B008FBF2FB7F89480916800909198
:1002A0006900A0916A00B0916B002FBF841B950B71
:1002B000A60BB70BE816F9060A071B0760F71F9194
:1002C0000F91FF90EF900895019759F0019749F031
:1002D000FC01EE0FFF1F31978FB7F8943197F1F7BC
:1002E0008FBF089578948AB582608ABD8AB581608F
:1002F0008ABD83B7826083BF83B7816083BF89B7BC
:10030000826089BF80B7826080BF80B7816080BF14
:1003100080B7806480BF319A309A379A0895282F29
:1003200030E0C901865D9F4FFC0194912C5D3F4FE9
:10033000F9018491882381F0E82FF0E0E25EFF4F1D
:10034000E491F0E0662329F48081909589238083ED
:1003500008958081892B80830895482F50E0CA0139
:10036000805D9F4FFC012491CA01865D9F4FFC0177
:1003700094914C5D5F4FFA013491332359F122235C
:10038000C9F0233039F480B78F7D80BF80B78F7D6F
:1003900080BF10C0213031F48AB58F778ABD8AB50D
:1003A0008F7B07C0223031F48AB58F7D8ABD8AB534
:1003B0008F7E8ABDE32FF0E0E05EFF4FE491F0E036
:1003C000662329F480819095892380830895808114
:1003D000892B8083089586DFBCDE6CDEFECF97FB21
:1003E000092E07260AD077FD04D00CD006D00020B5
:1003F0001AF4709561957F4F0895F6F79095819561
:100400009F4F0895AA1BBB1B51E107C0AA1FBB1F2A
:10041000A617B70710F0A61BB70B881F991F5A9590
:10042000A9F780959095BC01CD010895F894FFCF70
:00000001FF
