:100000001AC034C033C032C031C00EC12FC02EC0A0
:100010002DC02CC02BC02AC029C028C027C0003743
:10002000003800360101010101010102040810201D
:1000300001030000000011241FBECFE5D2E0DEBFA7
:10004000CDBF10E0A0E6B0E0E2EEF4E002C0059023
:100050000D92A836B107D9F710E0A8E6B0E001C0CC
:100060001D92AB37B107E1F70FD239C2C9CF21E0FA
:1000700030E002C0220F331F8A95E2F787B3422F88
:100080004095842387BB88B3822B88BB30E0622FE6
:1000900070E086B390E086239723892B19F43F5FA5
:1000A0003031B9F788B3482348BB87B3282B27BB27
:1000B000832F0895CF93DF9384E0D9DFC82FD0E05A
:1000C00080916A0090916B008C179D0724F48091B9
:1000D000640061E003C08091640060E097D16091AA
:1000E0006E0070916F008091680047D180916A0026
:1000F00090916B008C179D073CF460916E0070919D
:100100006F008091600004C08091600060E070E04A
:1001100034D1209166003091670080916E009091FB
:100120006F00280F391F30936F0020936E002F3F10
:10013000310519F48FEF9FEF04C0232B31F481E0D8
:1001400090E0909367008093660020916A00309160
:100150006B0080916C0090916D0028173907CCF0EE
:100160002C173D07B4F48091700090917100892B99
:1001700039F481E090E0909371008093700004C0A6
:100180001092710010927000809162006091700076
:100190003DD1D0936D00C0936C0084EF91E0C2D04C
:1001A000DF91CF9108950F931F93CF93DF938091A9
:1001B000680061E00DD18091600061E009D180911B
:1001C000620061E005D18091640061E001D164E6E4
:1001D00070E080E090E07CD0C0E0D0E000916A0068
:1001E00010916B0084E043DF080F111D10936B002A
:1001F00000936A0064E170E080E090E069D02196AD
:10020000C830D10559F780916A0090916B0004962F
:1002100068E070E03DD170936B0060936A00DF91FD
:10022000CF911F910F9108951F920F920FB60F92C9
:1002300011242F933F934F935F936F937F938F93EB
:100240009F93AF93BF9320917600309177004091B8
:1002500078005091790070917A00DA01C9014096D6
:10026000A11DB11D672F605D6D3730F06D57DA014C
:10027000C9014196A11DB11D60937A00809376005B
:1002800090937700A0937800B093790080917200EA
:1002900090917300A0917400B09175000196A11D1A
:1002A000B11D8093720090937300A0937400B0937B
:1002B0007500BF91AF919F918F917F916F915F91E9
:1002C0004F913F912F910F900FBE0F901F90189557
:1002D000EF92FF920F931F937B018C018FB7F894DD
:1002E000409176005091770060917800709179008C
:1002F0008FBF2FB7F8948091760090917700A091EE
:100300007800B09179002FBF841B950BA60BB70B1B
:10031000E816F9060A071B0760F71F910F91FF9077
:10032000EF900895019759F0019749F0FC01EE0F05
:10033000FF1F31978FB7F8943197F1F78FBF08956A
:1003400078948AB582608ABD8AB581608ABD83B798
:10035000826083BF83B7816083BF89B7826089BFB2
:1003600080B7826080BF80B7816080BF80B78064C3
:1003700080BF319A309A379A08951F93CF93DF93B5
:10038000182FEB0161E024D0E12FF0E0E05DFF4F9A
:100390008491813039F4209789F08AB580688ABDCC
:1003A000C9BD12C0833039F4209741F080B7806214
:1003B00080BFCEBD09C0C038D1051CF4812F60E0DC
:1003C00002C0812F61E022D0DF91CF911F9108956B
:1003D000282F30E0C901865D9F4FFC0194912C5D70
:1003E0003F4FF9018491882381F0E82FF0E0E25E2D
:1003F000FF4FE491F0E0662329F4808190958923F2
:10040000808308958081892B80830895482F50E050
:10041000CA01805D9F4FFC012491CA01865D9F4FF8
:10042000FC0194914C5D5F4FFA013491332359F1F3
:100430002223C9F0233039F480B78F7D80BF80B785
:100440008F7D80BF10C0213031F48AB58F778ABD8F
:100450008AB58F7B07C0223031F48AB58F7D8ABD83
:100460008AB58F7E8ABDE32FF0E0E05EFF4FE49116
:10047000F0E0662329F48081909589238083089594
:100480008081892B808308955BDF8DDE13DEFECFB4
:1004900097FB092E07260AD077FD04D00CD006D092
:1004A00000201AF4709561957F4F0895F6F79095A6
:1004B00081959F4F0895AA1BBB1B51E107C0AA1F3E
:1004C000BB1FA617B70710F0A61BB70B881F991FF5
:1004D0005A95A9F780959095BC01CD010895F8949F
:0204E000FFCF4C
:0804E20001000200030001000B
:00000001FF
