:100000001AC034C033C032C031C070C22FC02EC03D
:100010002DC02CC02BC02AC029C028C027C0003743
:10002000003800360101010101010102040810201D
:1000300001030000000011241FBECFE5D2E0DEBFA7
:10004000CDBF10E0A0E6B0E0E2EAF8E002C0059023
:100050000D92AC36B107D9F710E0ACE6B0E001C0C4
:100060001D92AD38B107E1F73AD319C4C9CFA0E06A
:10007000B0E0ECE3F0E0E4C3EC01A880B980CA8012
:10008000DB80A114B104C104D10441F484E2A82EA0
:1000900089EDB82E8BE5C82E87E0D82EC601B501B4
:1000A0002DE133EF41E050E086D327EA31E440E030
:1000B00050E068D37B018C01C601B5012DE133EF1F
:1000C00041E050E078D3CA01B9012CEE34EF4FEF94
:1000D0005FEF58D36E0D7F1D801F911F97FF04C0E7
:1000E0006150704080409048688379838A839B8305
:1000F0009B01AC015F77B901CA01CDB7DEB7EAE079
:10010000BBC3B5DF089580E690E0B1DF089560934A
:100110006000709361008093620090936300089583
:10012000813011F480E00BC0823011F481E007C00F
:10013000833011F482E003C0843021F483E060E076
:1001400090D20895853019F484E060E08AD2089551
:10015000813011F480E00BC0823011F481E007C0DF
:10016000833011F482E003C0843021F483E061E045
:1001700078D20895853019F484E061E072D2089550
:10018000AF92BF92CF92DF92EF92FF920F931F93A5
:1001900001D25B016C0160936C0070936D008093E1
:1001A0006E0090936F0080917000909171009C019F
:1001B000442737FD4095542F809176009091770029
:1001C000A0917800B0917900281B390B4A0B5B0B8A
:1001D0002A0D3B1D4C1D5D1DE0907200F0907300D8
:1001E0000091740010917500283F8AE2380780E082
:1001F000480780E0580708F471C0E09166006091FC
:100200006400709165008E2F992787FD9095A8D284
:100210009C01442737FD4095542F2E0D3F1D401F54
:10022000511F2093720030937300409374005093D9
:100230007500A0927600B0927700C0927800D092BC
:100240007900203197E2390790E0490790E059079B
:1002500080F0E195E093660080E197E2A0E0B0E0F5
:100260008093720090937300A0937400B093750014
:100270004EC0211531054105510509F048C01092C5
:100280007200109273001092740010927500E19544
:10029000E093660080916B0080936A000BC061E080
:1002A00070E080E090E026E030E040E050E03BD2BB
:1002B00060936A0090916A0080916B00981779F3BF
:1002C00060E070E080E090E020EA3FE040E050E055
:1002D0002AD270937B0060937A0019C088EE93E075
:1002E000A0E0B0E0E80EF91E0A1F1B1F2E153F0507
:1002F0004007510720F080916A0012DF08C0285E95
:1003000033404040504018F080916A0021DFA090B7
:100310006C00B0906D00C0906E00D0906F00809126
:100320007A0090917B009C01442737FD4095542F23
:100330008091800090918100A0918200B091830013
:10034000281B390B4A0B5B0B2A0D3B1D4C1D5D1DF9
:10035000E0907C00F0907D0000917E0010917F0085
:10036000283FAAE23A07A0E04A07A0E05A0708F4AB
:1003700071C0E091690060916700709168008E2FF4
:10038000992787FD9095ECD19C01442737FD409536
:10039000542F2E0D3F1D401F511F20937C00309382
:1003A0007D0040937E0050937F00A0928000B09229
:1003B0008100C0928200D09283002031B7E23B07D7
:1003C000B0E04B07B0E05B0780F0E195E093690097
:1003D00080E197E2A0E0B0E080937C0090937D0004
:1003E000A0937E00B0937F004EC0211531054105DA
:1003F000510509F048C010927C0010927D001092C7
:100400007E0010927F00E195E093690080916A0080
:1004100080936B000BC061E070E080E090E026E02C
:1004200030E040E050E07FD160936B0090916B0032
:1004300080916A00981779F360E070E080E090E0C6
:1004400020EA3FE040E050E06ED170937B00609383
:100450007A0019C088EE93E0A0E0B0E0E80EF91E43
:100460000A1F1B1F2E153F054007510720F08091E2
:100470006B0056DE08C0285E33404040504018F004
:1004800080916B0065DE1F910F91FF90EF90DF90E0
:10049000CF90BF90AF90089580E061E0C4D081E03C
:1004A00061E0C1D082E061E0BED083E061E0BBD01A
:1004B00084E061E0B8D064EC79E080E090E02CE486
:1004C0003DE140E050E02FD17093710060937000E7
:1004D00064EC79E080E090E02CE43DE140E050E025
:1004E00022D170937B0060937A0008951F920F923F
:1004F0000FB60F9211242F933F934F935F936F93F7
:100500007F938F939F93AF93BF93209188003091F7
:10051000890040918A0050918B0070918C00DA0123
:10052000C9014096A11DB11D672F605D6D3730F088
:100530006D57DA01C9014196A11DB11D60938C0070
:100540008093880090938900A0938A00B0938B00D9
:100550008091840090918500A0918600B0918700E1
:100560000196A11DB11D8093840090938500A093F6
:100570008600B0938700BF91AF919F918F917F913B
:100580006F915F914F913F912F910F900FBE0F9000
:100590001F9018956FB7F89482B790E0A0E0B0E094
:1005A00008B601FE08C00097A105B10521F480E05E
:1005B00091E0A0E0B0E0209184003091850040916E
:1005C0008600509187006FBF542F432F322F222770
:1005D000280F391F4A1F5B1F86E0220F331F441F5D
:1005E000551F8A95D1F7B901CA01089578948AB543
:1005F00082608ABD8AB581608ABD83B7826083BF0D
:1006000083B7816083BF89B7826089BF80B782600A
:1006100080BF80B7816080BF80B7806480BF319A1F
:10062000309A379A0895282F30E0C901865D9F4F90
:10063000FC0194912C5D3F4FF9018491882381F056
:10064000E82FF0E0E25EFF4FE491F0E0662329F44A
:10065000808190958923808308958081892B808370
:100660000895482F50E0CA01805D9F4FFC012491FE
:10067000CA01865D9F4FFC0194914C5D5F4FFA016A
:100680003491332359F12223C9F0233039F480B750
:100690008F7D80BF80B78F7D80BF10C0213031F447
:1006A0008AB58F778ABD8AB58F7B07C0223031F437
:1006B0008AB58F7D8ABD8AB58F7E8ABDE32FF0E033
:1006C000E05EFF4FE491F0E0662329F4808190958D
:1006D0008923808308958081892B8083089586DF14
:1006E000DBDE4EDDFECFEF92FF920F931F937B0177
:1006F0008C01611571058105910529F420E030E038
:1007000040E050E009C0FFDCA801970154D0AC01E3
:10071000CB01DA019C01AD01B901CA011F910F9112
:10072000FF90EF900895EF92FF920F931F937B013C
:100730008C0162177307840795075CF4261B370B3F
:10074000480B590BCA01B901CEDFE60EF71E081F90
:10075000191FB701C8011F910F91FF90EF900895E5
:100760005527002480FF02C0060E571F660F771F13
:100770006115710521F096958795009799F7952F4A
:10078000802D0895FF27EE27BB27AA2760FF04C00E
:10079000A20FB31FE41FF51F220F331F441F551F65
:1007A000969587957795679589F70097760771F7FE
:1007B000CF01BD01089597FB092E05260ED057FDE8
:1007C00004D014D00AD0001C38F4509540953095D0
:1007D00021953F4F4F4F5F4F0895F6F790958095C5
:1007E000709561957F4F8F4F9F4F0895A1E21A2E0C
:1007F000AA1BBB1BFD010DC0AA1FBB1FEE1FFF1FC5
:10080000A217B307E407F50720F0A21BB30BE40B14
:10081000F50B661F771F881F991F1A9469F760955B
:100820007095809590959B01AC01BD01CF01089515
:100830002F923F924F925F926F927F928F929F92F0
:10084000AF92BF92CF92DF92EF92FF920F931F93DE
:10085000CF93DF93CDB7DEB7CA1BDB0B0FB6F8948F
:10086000DEBF0FBECDBF09942A88398848885F84CF
:100870006E847D848C849B84AA84B984C884DF8040
:10088000EE80FD800C811B81AA81B981CE0FD11D24
:100890000FB6F894DEBF0FBECDBFED010895F894FA
:0208A000FFCF88
:0C08A20001000000C80001C800010101B5
:00000001FF
